{
  "_format": "hh-sol-artifact-1",
  "contractName": "VotingContract",
  "sourceName": "contracts/VotingContract.sol",
  "abi": [
    {
      "inputs": [],
      "stateMutability": "nonpayable",
      "type": "constructor"
    },
    {
      "anonymous": false,
      "inputs": [
        {
          "indexed": true,
          "internalType": "uint256",
          "name": "candidateId",
          "type": "uint256"
        },
        {
          "indexed": false,
          "internalType": "string",
          "name": "age",
          "type": "string"
        },
        {
          "indexed": false,
          "internalType": "string",
          "name": "name",
          "type": "string"
        },
        {
          "indexed": false,
          "internalType": "string",
          "name": "image",
          "type": "string"
        },
        {
          "indexed": false,
          "internalType": "uint256",
          "name": "voterCount",
          "type": "uint256"
        },
        {
          "indexed": false,
          "internalType": "address",
          "name": "_address",
          "type": "address"
        },
        {
          "indexed": false,
          "internalType": "string",
          "name": "ipfs",
          "type": "string"
        }
      ],
      "name": "CandidateCreated",
      "type": "event"
    },
    {
      "anonymous": false,
      "inputs": [
        {
          "indexed": true,
          "internalType": "uint256",
          "name": "voter_voterId",
          "type": "uint256"
        },
        {
          "indexed": false,
          "internalType": "string",
          "name": "voter_name",
          "type": "string"
        },
        {
          "indexed": false,
          "internalType": "string",
          "name": "voter_image",
          "type": "string"
        },
        {
          "indexed": false,
          "internalType": "address",
          "name": "_address",
          "type": "address"
        },
        {
          "indexed": false,
          "internalType": "uint256",
          "name": "voter_allowed",
          "type": "uint256"
        },
        {
          "indexed": false,
          "internalType": "bool",
          "name": "voter_voted",
          "type": "bool"
        },
        {
          "indexed": false,
          "internalType": "uint256",
          "name": "voter_vote",
          "type": "uint256"
        },
        {
          "indexed": false,
          "internalType": "string",
          "name": "voter_ipfs",
          "type": "string"
        }
      ],
      "name": "VoterCreated",
      "type": "event"
    },
    {
      "inputs": [],
      "name": "_candidateId",
      "outputs": [
        {
          "internalType": "uint256",
          "name": "",
          "type": "uint256"
        }
      ],
      "stateMutability": "view",
      "type": "function"
    },
    {
      "inputs": [],
      "name": "_voterId",
      "outputs": [
        {
          "internalType": "uint256",
          "name": "",
          "type": "uint256"
        }
      ],
      "stateMutability": "view",
      "type": "function"
    },
    {
      "inputs": [
        {
          "internalType": "uint256",
          "name": "",
          "type": "uint256"
        }
      ],
      "name": "candidateAddress",
      "outputs": [
        {
          "internalType": "address",
          "name": "",
          "type": "address"
        }
      ],
      "stateMutability": "view",
      "type": "function"
    },
    {
      "inputs": [
        {
          "internalType": "address",
          "name": "",
          "type": "address"
        }
      ],
      "name": "candidates",
      "outputs": [
        {
          "internalType": "uint256",
          "name": "candidateId",
          "type": "uint256"
        },
        {
          "internalType": "string",
          "name": "age",
          "type": "string"
        },
        {
          "internalType": "string",
          "name": "name",
          "type": "string"
        },
        {
          "internalType": "string",
          "name": "image",
          "type": "string"
        },
        {
          "internalType": "uint256",
          "name": "voterCount",
          "type": "uint256"
        },
        {
          "internalType": "address",
          "name": "_address",
          "type": "address"
        },
        {
          "internalType": "string",
          "name": "ipfs",
          "type": "string"
        }
      ],
      "stateMutability": "view",
      "type": "function"
    },
    {
      "inputs": [],
      "name": "getCandidate",
      "outputs": [
        {
          "internalType": "address[]",
          "name": "",
          "type": "address[]"
        }
      ],
      "stateMutability": "view",
      "type": "function"
    },
    {
      "inputs": [],
      "name": "getCandidateLength",
      "outputs": [
        {
          "internalType": "uint256",
          "name": "",
          "type": "uint256"
        }
      ],
      "stateMutability": "view",
      "type": "function"
    },
    {
      "inputs": [
        {
          "internalType": "address",
          "name": "_address",
          "type": "address"
        }
      ],
      "name": "getCandidatedata",
      "outputs": [
        {
          "internalType": "string",
          "name": "",
          "type": "string"
        },
        {
          "internalType": "string",
          "name": "",
          "type": "string"
        },
        {
          "internalType": "uint256",
          "name": "",
          "type": "uint256"
        },
        {
          "internalType": "string",
          "name": "",
          "type": "string"
        },
        {
          "internalType": "uint256",
          "name": "",
          "type": "uint256"
        },
        {
          "internalType": "string",
          "name": "",
          "type": "string"
        },
        {
          "internalType": "address",
          "name": "",
          "type": "address"
        }
      ],
      "stateMutability": "view",
      "type": "function"
    },
    {
      "inputs": [],
      "name": "getVotedVoterList",
      "outputs": [
        {
          "internalType": "address[]",
          "name": "",
          "type": "address[]"
        }
      ],
      "stateMutability": "view",
      "type": "function"
    },
    {
      "inputs": [],
      "name": "getVoterLength",
      "outputs": [
        {
          "internalType": "uint256",
          "name": "",
          "type": "uint256"
        }
      ],
      "stateMutability": "view",
      "type": "function"
    },
    {
      "inputs": [],
      "name": "getVoterList",
      "outputs": [
        {
          "internalType": "address[]",
          "name": "",
          "type": "address[]"
        }
      ],
      "stateMutability": "view",
      "type": "function"
    },
    {
      "inputs": [
        {
          "internalType": "address",
          "name": "_address",
          "type": "address"
        }
      ],
      "name": "getVoterdata",
      "outputs": [
        {
          "internalType": "uint256",
          "name": "",
          "type": "uint256"
        },
        {
          "internalType": "string",
          "name": "",
          "type": "string"
        },
        {
          "internalType": "string",
          "name": "",
          "type": "string"
        },
        {
          "internalType": "address",
          "name": "",
          "type": "address"
        },
        {
          "internalType": "uint256",
          "name": "",
          "type": "uint256"
        },
        {
          "internalType": "bool",
          "name": "",
          "type": "bool"
        },
        {
          "internalType": "uint256",
          "name": "",
          "type": "uint256"
        },
        {
          "internalType": "string",
          "name": "",
          "type": "string"
        }
      ],
      "stateMutability": "view",
      "type": "function"
    },
    {
      "inputs": [
        {
          "internalType": "address",
          "name": "_address",
          "type": "address"
        },
        {
          "internalType": "string",
          "name": "_age",
          "type": "string"
        },
        {
          "internalType": "string",
          "name": "_name",
          "type": "string"
        },
        {
          "internalType": "string",
          "name": "_image",
          "type": "string"
        },
        {
          "internalType": "string",
          "name": "_ipfs",
          "type": "string"
        }
      ],
      "name": "setCandidate",
      "outputs": [],
      "stateMutability": "nonpayable",
      "type": "function"
    },
    {
      "inputs": [
        {
          "internalType": "address",
          "name": "_candidateAddress",
          "type": "address"
        },
        {
          "internalType": "uint256",
          "name": "_candidateVoteId",
          "type": "uint256"
        }
      ],
      "name": "vote",
      "outputs": [],
      "stateMutability": "nonpayable",
      "type": "function"
    },
    {
      "inputs": [
        {
          "internalType": "uint256",
          "name": "",
          "type": "uint256"
        }
      ],
      "name": "votedVoters",
      "outputs": [
        {
          "internalType": "address",
          "name": "",
          "type": "address"
        }
      ],
      "stateMutability": "view",
      "type": "function"
    },
    {
      "inputs": [
        {
          "internalType": "address",
          "name": "_address",
          "type": "address"
        },
        {
          "internalType": "string",
          "name": "_name",
          "type": "string"
        },
        {
          "internalType": "string",
          "name": "_image",
          "type": "string"
        },
        {
          "internalType": "string",
          "name": "_ipfs",
          "type": "string"
        }
      ],
      "name": "voterRight",
      "outputs": [],
      "stateMutability": "nonpayable",
      "type": "function"
    },
    {
      "inputs": [
        {
          "internalType": "address",
          "name": "",
          "type": "address"
        }
      ],
      "name": "voters",
      "outputs": [
        {
          "internalType": "uint256",
          "name": "voter_voterId",
          "type": "uint256"
        },
        {
          "internalType": "string",
          "name": "voter_name",
          "type": "string"
        },
        {
          "internalType": "string",
          "name": "voter_image",
          "type": "string"
        },
        {
          "internalType": "address",
          "name": "_address",
          "type": "address"
        },
        {
          "internalType": "uint256",
          "name": "voter_allowed",
          "type": "uint256"
        },
        {
          "internalType": "bool",
          "name": "voter_voted",
          "type": "bool"
        },
        {
          "internalType": "uint256",
          "name": "voter_vote",
          "type": "uint256"
        },
        {
          "internalType": "string",
          "name": "voter_ipfs",
          "type": "string"
        }
      ],
      "stateMutability": "view",
      "type": "function"
    },
    {
      "inputs": [
        {
          "internalType": "uint256",
          "name": "",
          "type": "uint256"
        }
      ],
      "name": "votersAddress",
      "outputs": [
        {
          "internalType": "address",
          "name": "",
          "type": "address"
        }
      ],
      "stateMutability": "view",
      "type": "function"
    },
    {
      "inputs": [],
      "name": "votingOrganizer",
      "outputs": [
        {
          "internalType": "address",
          "name": "",
          "type": "address"
        }
      ],
      "stateMutability": "view",
      "type": "function"
    }
  ],
  "bytecode": "0x608060405234801561001057600080fd5b5033600260006101000a81548173ffffffffffffffffffffffffffffffffffffffff021916908373ffffffffffffffffffffffffffffffffffffffff160217905550612675806100616000396000f3fe608060405234801561001057600080fd5b50600436106101165760003560e01c80638e945685116100a2578063b63c82ca11610071578063b63c82ca14610304578063b9be31521461033a578063c5036fd414610358578063c91ec7121461038f578063f7522a83146103ab57610116565b80638e94568514610273578063a3ec138d14610291578063a7388967146102c8578063b28d92ae146102e657610116565b80635cc48aa7116100e95780635cc48aa7146101b55780635f74bbde146101d357806370218b85146101ef5780637831ffb31461020d5780638ab66a901461023d57610116565b80630361419e1461011b57806305ad45a4146101375780633a88251a1461015557806343242daa14610185575b600080fd5b610135600480360381019061013091906119f2565b6103c9565b005b61013f610646565b60405161014c9190611ac6565b60405180910390f35b61016f600480360381019061016a9190611b0d565b610653565b60405161017c9190611b49565b60405180910390f35b61019f600480360381019061019a9190611b0d565b610692565b6040516101ac9190611b49565b60405180910390f35b6101bd6106d1565b6040516101ca9190611b49565b60405180910390f35b6101ed60048036038101906101e89190611b64565b6106f7565b005b6101f76108be565b6040516102049190611c62565b60405180910390f35b61022760048036038101906102229190611b0d565b61094c565b6040516102349190611b49565b60405180910390f35b61025760048036038101906102529190611c84565b61098b565b60405161026a9796959493929190611d30565b60405180910390f35b61027b610c0d565b6040516102889190611c62565b60405180910390f35b6102ab60048036038101906102a69190611c84565b610c9b565b6040516102bf989796959493929190611dd6565b60405180910390f35b6102d0610ea8565b6040516102dd9190611ac6565b60405180910390f35b6102ee610eae565b6040516102fb9190611c62565b60405180910390f35b61031e60048036038101906103199190611c84565b610f3c565b6040516103319796959493929190611e69565b60405180910390f35b610342611383565b60405161034f9190611ac6565b60405180910390f35b610372600480360381019061036d9190611c84565b611389565b604051610386989796959493929190611dd6565b60405180910390f35b6103a960048036038101906103a49190611ef4565b6115eb565b005b6103b361182d565b6040516103c09190611ac6565b60405180910390f35b3373ffffffffffffffffffffffffffffffffffffffff16600260009054906101000a900473ffffffffffffffffffffffffffffffffffffffff1673ffffffffffffffffffffffffffffffffffffffff1614610459576040517f08c379a000000000000000000000000000000000000000000000000000000000815260040161045090612051565b60405180910390fd5b60008081548092919061046b906120a0565b91905055506000805490506000600760008773ffffffffffffffffffffffffffffffffffffffff1673ffffffffffffffffffffffffffffffffffffffff168152602001908152602001600020905060008160040154146104ca57600080fd5b60018160040181905550848160010190816104e591906122f4565b50838160020190816104f791906122f4565b50858160030160006101000a81548173ffffffffffffffffffffffffffffffffffffffff021916908373ffffffffffffffffffffffffffffffffffffffff1602179055508181600001819055506103e8816006018190555060008160050160006101000a81548160ff0219169083151502179055508281600701908161057d91906122f4565b506006869080600181540180825580915050600190039060005260206000200160009091909190916101000a81548173ffffffffffffffffffffffffffffffffffffffff021916908373ffffffffffffffffffffffffffffffffffffffff160217905550817ff5f39971dd62d9929e3a9feaa6bb77fe7c7da0001babff8a65a7e51ad0201c1986868985600401548660050160009054906101000a900460ff1687600601548a60405161063697969594939291906123c6565b60405180910390a2505050505050565b6000600680549050905090565b6003818154811061066357600080fd5b906000526020600020016000915054906101000a900473ffffffffffffffffffffffffffffffffffffffff1681565b600681815481106106a257600080fd5b906000526020600020016000915054906101000a900473ffffffffffffffffffffffffffffffffffffffff1681565b600260009054906101000a900473ffffffffffffffffffffffffffffffffffffffff1681565b6000600760003373ffffffffffffffffffffffffffffffffffffffff1673ffffffffffffffffffffffffffffffffffffffff16815260200190815260200160002090508060050160009054906101000a900460ff161561078c576040517f08c379a000000000000000000000000000000000000000000000000000000000815260040161078390612496565b60405180910390fd5b60008160040154036107d3576040517f08c379a00000000000000000000000000000000000000000000000000000000081526004016107ca90612502565b60405180910390fd5b60018160050160006101000a81548160ff0219169083151502179055508181600601819055506005339080600181540180825580915050600190039060005260206000200160009091909190916101000a81548173ffffffffffffffffffffffffffffffffffffffff021916908373ffffffffffffffffffffffffffffffffffffffff1602179055508060040154600460008573ffffffffffffffffffffffffffffffffffffffff1673ffffffffffffffffffffffffffffffffffffffff16815260200190815260200160002060040160008282546108b29190612522565b92505081905550505050565b6060600380548060200260200160405190810160405280929190818152602001828054801561094257602002820191906000526020600020905b8160009054906101000a900473ffffffffffffffffffffffffffffffffffffffff1673ffffffffffffffffffffffffffffffffffffffff16815260200190600101908083116108f8575b5050505050905090565b6005818154811061095c57600080fd5b906000526020600020016000915054906101000a900473ffffffffffffffffffffffffffffffffffffffff1681565b60046020528060005260406000206000915090508060000154908060010180546109b490612117565b80601f01602080910402602001604051908101604052809291908181526020018280546109e090612117565b8015610a2d5780601f10610a0257610100808354040283529160200191610a2d565b820191906000526020600020905b815481529060010190602001808311610a1057829003601f168201915b505050505090806002018054610a4290612117565b80601f0160208091040260200160405190810160405280929190818152602001828054610a6e90612117565b8015610abb5780601f10610a9057610100808354040283529160200191610abb565b820191906000526020600020905b815481529060010190602001808311610a9e57829003601f168201915b505050505090806003018054610ad090612117565b80601f0160208091040260200160405190810160405280929190818152602001828054610afc90612117565b8015610b495780601f10610b1e57610100808354040283529160200191610b49565b820191906000526020600020905b815481529060010190602001808311610b2c57829003601f168201915b5050505050908060040154908060050160009054906101000a900473ffffffffffffffffffffffffffffffffffffffff1690806006018054610b8a90612117565b80601f0160208091040260200160405190810160405280929190818152602001828054610bb690612117565b8015610c035780601f10610bd857610100808354040283529160200191610c03565b820191906000526020600020905b815481529060010190602001808311610be657829003601f168201915b5050505050905087565b60606006805480602002602001604051908101604052809291908181526020018280548015610c9157602002820191906000526020600020905b8160009054906101000a900473ffffffffffffffffffffffffffffffffffffffff1673ffffffffffffffffffffffffffffffffffffffff1681526020019060010190808311610c47575b5050505050905090565b6007602052806000526040600020600091509050806000015490806001018054610cc490612117565b80601f0160208091040260200160405190810160405280929190818152602001828054610cf090612117565b8015610d3d5780601f10610d1257610100808354040283529160200191610d3d565b820191906000526020600020905b815481529060010190602001808311610d2057829003601f168201915b505050505090806002018054610d5290612117565b80601f0160208091040260200160405190810160405280929190818152602001828054610d7e90612117565b8015610dcb5780601f10610da057610100808354040283529160200191610dcb565b820191906000526020600020905b815481529060010190602001808311610dae57829003601f168201915b5050505050908060030160009054906101000a900473ffffffffffffffffffffffffffffffffffffffff16908060040154908060050160009054906101000a900460ff1690806006015490806007018054610e2590612117565b80601f0160208091040260200160405190810160405280929190818152602001828054610e5190612117565b8015610e9e5780601f10610e7357610100808354040283529160200191610e9e565b820191906000526020600020905b815481529060010190602001808311610e8157829003601f168201915b5050505050905088565b60015481565b60606006805480602002602001604051908101604052809291908181526020018280548015610f3257602002820191906000526020600020905b8160009054906101000a900473ffffffffffffffffffffffffffffffffffffffff1673ffffffffffffffffffffffffffffffffffffffff1681526020019060010190808311610ee8575b5050505050905090565b60608060006060600060606000600460008973ffffffffffffffffffffffffffffffffffffffff1673ffffffffffffffffffffffffffffffffffffffff168152602001908152602001600020600101600460008a73ffffffffffffffffffffffffffffffffffffffff1673ffffffffffffffffffffffffffffffffffffffff168152602001908152602001600020600201600460008b73ffffffffffffffffffffffffffffffffffffffff1673ffffffffffffffffffffffffffffffffffffffff16815260200190815260200160002060000154600460008c73ffffffffffffffffffffffffffffffffffffffff1673ffffffffffffffffffffffffffffffffffffffff168152602001908152602001600020600301600460008d73ffffffffffffffffffffffffffffffffffffffff1673ffffffffffffffffffffffffffffffffffffffff16815260200190815260200160002060040154600460008e73ffffffffffffffffffffffffffffffffffffffff1673ffffffffffffffffffffffffffffffffffffffff168152602001908152602001600020600601600460008f73ffffffffffffffffffffffffffffffffffffffff1673ffffffffffffffffffffffffffffffffffffffff16815260200190815260200160002060050160009054906101000a900473ffffffffffffffffffffffffffffffffffffffff1686805461114690612117565b80601f016020809104026020016040519081016040528092919081815260200182805461117290612117565b80156111bf5780601f10611194576101008083540402835291602001916111bf565b820191906000526020600020905b8154815290600101906020018083116111a257829003601f168201915b505050505096508580546111d290612117565b80601f01602080910402602001604051908101604052809291908181526020018280546111fe90612117565b801561124b5780601f106112205761010080835404028352916020019161124b565b820191906000526020600020905b81548152906001019060200180831161122e57829003601f168201915b5050505050955083805461125e90612117565b80601f016020809104026020016040519081016040528092919081815260200182805461128a90612117565b80156112d75780601f106112ac576101008083540402835291602001916112d7565b820191906000526020600020905b8154815290600101906020018083116112ba57829003601f168201915b505050505093508180546112ea90612117565b80601f016020809104026020016040519081016040528092919081815260200182805461131690612117565b80156113635780601f1061133857610100808354040283529160200191611363565b820191906000526020600020905b81548152906001019060200180831161134657829003601f168201915b505050505091509650965096509650965096509650919395979092949650565b60005481565b600060608060008060008060606000600760008b73ffffffffffffffffffffffffffffffffffffffff1673ffffffffffffffffffffffffffffffffffffffff1681526020019081526020016000209050806000015481600101826002018360030160009054906101000a900473ffffffffffffffffffffffffffffffffffffffff1684600401548560050160009054906101000a900460ff1686600601548760070186805461143790612117565b80601f016020809104026020016040519081016040528092919081815260200182805461146390612117565b80156114b05780601f10611485576101008083540402835291602001916114b0565b820191906000526020600020905b81548152906001019060200180831161149357829003601f168201915b505050505096508580546114c390612117565b80601f01602080910402602001604051908101604052809291908181526020018280546114ef90612117565b801561153c5780601f106115115761010080835404028352916020019161153c565b820191906000526020600020905b81548152906001019060200180831161151f57829003601f168201915b5050505050955080805461154f90612117565b80601f016020809104026020016040519081016040528092919081815260200182805461157b90612117565b80156115c85780601f1061159d576101008083540402835291602001916115c8565b820191906000526020600020905b8154815290600101906020018083116115ab57829003601f168201915b505050505090509850985098509850985098509850985050919395975091939597565b3373ffffffffffffffffffffffffffffffffffffffff16600260009054906101000a900473ffffffffffffffffffffffffffffffffffffffff1673ffffffffffffffffffffffffffffffffffffffff161461167b576040517f08c379a0000000000000000000000000000000000000000000000000000000008152600401611672906125a2565b60405180910390fd5b6001600081548092919061168e906120a0565b9190505550600060015490506000600460008873ffffffffffffffffffffffffffffffffffffffff1673ffffffffffffffffffffffffffffffffffffffff1681526020019081526020016000209050858160010190816116ee91906122f4565b508481600201908161170091906122f4565b508381600301908161171291906122f4565b508281600601908161172491906122f4565b5081816000018190555060008160040181905550868160050160006101000a81548173ffffffffffffffffffffffffffffffffffffffff021916908373ffffffffffffffffffffffffffffffffffffffff1602179055506003879080600181540180825580915050600190039060005260206000200160009091909190916101000a81548173ffffffffffffffffffffffffffffffffffffffff021916908373ffffffffffffffffffffffffffffffffffffffff160217905550817f978d20e26392611c02bd1a6e72cc85fa19bd1024b23c12155f8183fbc90902e787878785600401548c8960405161181c969594939291906125c2565b60405180910390a250505050505050565b6000600380549050905090565b6000604051905090565b600080fd5b600080fd5b600073ffffffffffffffffffffffffffffffffffffffff82169050919050565b60006118798261184e565b9050919050565b6118898161186e565b811461189457600080fd5b50565b6000813590506118a681611880565b92915050565b600080fd5b600080fd5b6000601f19601f8301169050919050565b7f4e487b7100000000000000000000000000000000000000000000000000000000600052604160045260246000fd5b6118ff826118b6565b810181811067ffffffffffffffff8211171561191e5761191d6118c7565b5b80604052505050565b600061193161183a565b905061193d82826118f6565b919050565b600067ffffffffffffffff82111561195d5761195c6118c7565b5b611966826118b6565b9050602081019050919050565b82818337600083830152505050565b600061199561199084611942565b611927565b9050828152602081018484840111156119b1576119b06118b1565b5b6119bc848285611973565b509392505050565b600082601f8301126119d9576119d86118ac565b5b81356119e9848260208601611982565b91505092915050565b60008060008060808587031215611a0c57611a0b611844565b5b6000611a1a87828801611897565b945050602085013567ffffffffffffffff811115611a3b57611a3a611849565b5b611a47878288016119c4565b935050604085013567ffffffffffffffff811115611a6857611a67611849565b5b611a74878288016119c4565b925050606085013567ffffffffffffffff811115611a9557611a94611849565b5b611aa1878288016119c4565b91505092959194509250565b6000819050919050565b611ac081611aad565b82525050565b6000602082019050611adb6000830184611ab7565b92915050565b611aea81611aad565b8114611af557600080fd5b50565b600081359050611b0781611ae1565b92915050565b600060208284031215611b2357611b22611844565b5b6000611b3184828501611af8565b91505092915050565b611b438161186e565b82525050565b6000602082019050611b5e6000830184611b3a565b92915050565b60008060408385031215611b7b57611b7a611844565b5b6000611b8985828601611897565b9250506020611b9a85828601611af8565b9150509250929050565b600081519050919050565b600082825260208201905092915050565b6000819050602082019050919050565b611bd98161186e565b82525050565b6000611beb8383611bd0565b60208301905092915050565b6000602082019050919050565b6000611c0f82611ba4565b611c198185611baf565b9350611c2483611bc0565b8060005b83811015611c55578151611c3c8882611bdf565b9750611c4783611bf7565b925050600181019050611c28565b5085935050505092915050565b60006020820190508181036000830152611c7c8184611c04565b905092915050565b600060208284031215611c9a57611c99611844565b5b6000611ca884828501611897565b91505092915050565b600081519050919050565b600082825260208201905092915050565b60005b83811015611ceb578082015181840152602081019050611cd0565b60008484015250505050565b6000611d0282611cb1565b611d0c8185611cbc565b9350611d1c818560208601611ccd565b611d25816118b6565b840191505092915050565b600060e082019050611d45600083018a611ab7565b8181036020830152611d578189611cf7565b90508181036040830152611d6b8188611cf7565b90508181036060830152611d7f8187611cf7565b9050611d8e6080830186611ab7565b611d9b60a0830185611b3a565b81810360c0830152611dad8184611cf7565b905098975050505050505050565b60008115159050919050565b611dd081611dbb565b82525050565b600061010082019050611dec600083018b611ab7565b8181036020830152611dfe818a611cf7565b90508181036040830152611e128189611cf7565b9050611e216060830188611b3a565b611e2e6080830187611ab7565b611e3b60a0830186611dc7565b611e4860c0830185611ab7565b81810360e0830152611e5a8184611cf7565b90509998505050505050505050565b600060e0820190508181036000830152611e83818a611cf7565b90508181036020830152611e978189611cf7565b9050611ea66040830188611ab7565b8181036060830152611eb88187611cf7565b9050611ec76080830186611ab7565b81810360a0830152611ed98185611cf7565b9050611ee860c0830184611b3a565b98975050505050505050565b600080600080600060a08688031215611f1057611f0f611844565b5b6000611f1e88828901611897565b955050602086013567ffffffffffffffff811115611f3f57611f3e611849565b5b611f4b888289016119c4565b945050604086013567ffffffffffffffff811115611f6c57611f6b611849565b5b611f78888289016119c4565b935050606086013567ffffffffffffffff811115611f9957611f98611849565b5b611fa5888289016119c4565b925050608086013567ffffffffffffffff811115611fc657611fc5611849565b5b611fd2888289016119c4565b9150509295509295909350565b7f4f6e6c7920746865206f7267616e697a65722063616e2063726561746520766f60008201527f746572732e000000000000000000000000000000000000000000000000000000602082015250565b600061203b602583611cbc565b915061204682611fdf565b604082019050919050565b6000602082019050818103600083015261206a8161202e565b9050919050565b7f4e487b7100000000000000000000000000000000000000000000000000000000600052601160045260246000fd5b60006120ab82611aad565b91507fffffffffffffffffffffffffffffffffffffffffffffffffffffffffffffffff82036120dd576120dc612071565b5b600182019050919050565b7f4e487b7100000000000000000000000000000000000000000000000000000000600052602260045260246000fd5b6000600282049050600182168061212f57607f821691505b602082108103612142576121416120e8565b5b50919050565b60008190508160005260206000209050919050565b60006020601f8301049050919050565b600082821b905092915050565b6000600883026121aa7fffffffffffffffffffffffffffffffffffffffffffffffffffffffffffffffff8261216d565b6121b4868361216d565b95508019841693508086168417925050509392505050565b6000819050919050565b60006121f16121ec6121e784611aad565b6121cc565b611aad565b9050919050565b6000819050919050565b61220b836121d6565b61221f612217826121f8565b84845461217a565b825550505050565b600090565b612234612227565b61223f818484612202565b505050565b5b818110156122635761225860008261222c565b600181019050612245565b5050565b601f8211156122a85761227981612148565b6122828461215d565b81016020851015612291578190505b6122a561229d8561215d565b830182612244565b50505b505050565b600082821c905092915050565b60006122cb600019846008026122ad565b1980831691505092915050565b60006122e483836122ba565b9150826002028217905092915050565b6122fd82611cb1565b67ffffffffffffffff811115612316576123156118c7565b5b6123208254612117565b61232b828285612267565b600060209050601f83116001811461235e576000841561234c578287015190505b61235685826122d8565b8655506123be565b601f19841661236c86612148565b60005b828110156123945784890151825560018201915060208501945060208101905061236f565b868310156123b157848901516123ad601f8916826122ba565b8355505b6001600288020188555050505b505050505050565b600060e08201905081810360008301526123e0818a611cf7565b905081810360208301526123f48189611cf7565b90506124036040830188611b3a565b6124106060830187611ab7565b61241d6080830186611dc7565b61242a60a0830185611ab7565b81810360c083015261243c8184611cf7565b905098975050505050505050565b7f596f75206861766520616c726561647920766f74656400000000000000000000600082015250565b6000612480601683611cbc565b915061248b8261244a565b602082019050919050565b600060208201905081810360008301526124af81612473565b9050919050565b7f596f752068617665206e6f20726967687420746f20766f746500000000000000600082015250565b60006124ec601983611cbc565b91506124f7826124b6565b602082019050919050565b6000602082019050818103600083015261251b816124df565b9050919050565b600061252d82611aad565b915061253883611aad565b92508282019050808211156125505761254f612071565b5b92915050565b7f4f6e6c79206f7267616e697a65722063616e20616c6c6f770000000000000000600082015250565b600061258c601883611cbc565b915061259782612556565b602082019050919050565b600060208201905081810360008301526125bb8161257f565b9050919050565b600060c08201905081810360008301526125dc8189611cf7565b905081810360208301526125f08188611cf7565b905081810360408301526126048187611cf7565b90506126136060830186611ab7565b6126206080830185611b3a565b81810360a08301526126328184611cf7565b905097965050505050505056fea2646970667358221220e67728724d61eb8f215cd457de4e93752d6b46c453f73f1f160da29d6ee3ad1964736f6c63430008120033",
  "linkReferences": {},
  "deployedLinkReferences": {}
}